S010000046756C6C436F64652E7372656306
S11300000C94C5000C94E2000C94E2000C94E20001
S11300100C94E2000C94E2000C94E2000C94E200D4
S11300200C94E2000C94E2000C94E2000C94E200C4
S11300300C94E2000C949D020C94E2000C94E200F7
S11300400C94E2000C94E2000C94E2000C94E200A4
S11300500C94E2004E414E494E495459494E46CD06
S1130060CCCC3D0AD7233C17B7D13877CC2B32956B
S113007095E6241FB14F0A000020410000C8420049
S1130080401C4620BCBE4CCA1B0E5AAEC59D740013
S1130090407A10F35A00A0724E18090010A5D4E853
S11300A00000E87648170000E40B54020000CA9AE6
S11300B03B000000E1F50500008096980000004038
S11300C0420F000000A0860100000010270000007D
S11300D000E803000000006400000000000A0000C3
S11300E00000000100000000002C76D888DC674F77
S11300F00823DFC1DFAE59E1B1B796E5E3E453C6A7
S11301003AE651997696E8E6C28426EB898C9B629E
S1130110ED407C6FFCEFBC9C9F40F2BAA56FA5F448
S113012090055A2AF75C936B6CF9676DC11BFCE070
S1130130E40D47FEF520E6B500D0ED902E030094C3
S11301403577050080841E080000204E0A00000058
S1130150C80C333333330F986E12831141EF8D2162
S113016014893BE65516CFFEE6DB18D1844B381BC9
S1130170F77C1D901DA4BBE424203284725E22818E
S113018000C9F124ECA1E53D270011241FBECFE5F1
S1130190D8E0DEBFCDBF10E0A0E6B0E0E8E2FBE1CE
S11301A002C005900D92A43EB107D9F721E0A4EE58
S11301B0B0E001C01D92AE3EB207E1F70E94CB054C
S11301C00C94920D0C94000011B880E280B908954B
S11301D094EA96BF06B607FEFDCF91B1987F9031A1
S11301E071F483B984E886BF06B607FEFDCF81B1FA
S11301F0887F803431F0803231F482E0089580E0E9
S1130200089581E0089583E0089584E986BF06B6E1
S113021004FCFDCF0895CF93C82F84EA86BF06B6A9
S113022007FEFDCF81B1887F8830B9F7C3B984E870
S113023086BF06B607FEFDCF81B1887F883119F0ED
S11302400E940501EACFCF91089583B984E886BF5F
S113025006B607FEFDCF81B1887F883221F0803356
S113026021F481E0089580E0089582E0089584EC0B
S113027086BF06B607FEFDCF83B1089584E886BF26
S113028006B607FEFDCF83B1089588BB85B38C7F86
S113029085BB85B3846085BB82E08A95F1F700C095
S11302A085B38B7F85BB8FE99FE00197F1F700C091
S11302B00000089588BB85B38D7F85BB85B38560B9
S11302C085BB82E08A95F1F700C085B38B7F85BB3F
S11302D08FEC97E00197F1F700C00000089584B314
S11302E0876084BB8FEF87BB8FE99CE80197F1F7A8
S11302F000C0000088E30E9445018CE00E94450193
S113030086E00E94450181E00E94450180E80E9448
S1130310450108950F931F93CF93DF938C01C0E0A1
S1130320D0E003C00E945A012196F801EC0FFD1F92
S113033080818111F7CFDF91CF911F910F910895A3
S1130340CF93DF93EA01813031F4862F8F70806878
S11303500E94450107C0823029F4862F8F70806C7B
S11303600E944501CE010E948A01DF91CF91089538
S113037081E00E94450108958FEF87BB1ABA87E890
S113038086B980EC87B9089586B1806486B9349BB8
S1130390FECF8AE18A95F1F700C024B185B190E0DF
S11303A0982F8827820F911D0895F8948F5F90E00D
S11303B007C0E92FF0E0EC51FE4F20839F5F8F5F71
S11303C0482F50E0FA01E751FF4F20812C3289F782
S11303D0E92FF0E0DA01A651BF4F8C91EC51FE4FAA
S11303E08083789408958F929F92AF92BF92CF9218
S11303F0DF92EF92FF920F931F930E94640920E013
S113040030E048EC52E40E9478076B017C010E94C2
S1130410EA07072E000C880B990B0E9422084B0157
S11304205C019B01AC01C701B6010E9406072AE9E1
S113043039E949E15FE30E9478079B01AC01C501FA
S1130440B4010E9407070BE811E024E046E00E9493
S113045044091F910F91FF90EF90DF90CF90BF90D0
S1130460AF909F908F900895F8948F5F90E007C0AD
S1130470E92FF0E0E354FE4F20839F5F8F5FE82F66
S1130480F0E0E751FF4F20812C3291F731E0390F32
S1130490E92FF0E08F5FE354FE4F2083232F30E0F9
S11304A0E82FF0E0E751FF4F8081F901E354FE4F5C
S11304B080838DEB91E00E94F30178940895F89481
S11304C08F5F90E007C0E92FF0E0E156FE4F2083F4
S11304D09F5F8F5FE82FF0E0E751FF4F20812C32C0
S11304E091F731E0390FE92FF0E08F5FE156FE4FCD
S11304F02083232F30E0E82FF0E0E751FF4F808185
S1130500F901E156FE4F80838FE991E00E94F301E7
S113051078940895CF93DF93C0EDD1E08F8190E07C
S11305200E94D5018A8190E00E945F02888190E058
S11305300E943402DF91CF9108951F920F920FB65B
S11305400F9211242F933F934F935F938F939F9315
S1130550EF93FF939FB7F8948CB1843259F41092BF
S1130560B9011092B8011092B7011092B60110921D
S1130570E40045C02091E400222329F18C3299F44F
S11305802091B6013091B701A9014F5F5F4F50939D
S1130590B7014093B6014091B8015091B901F901F6
S11305A0E053FE4F40832091B8013091B901A90175
S11305B04F5F5F4F5093B9014093B801F901E75180
S11305C0FF4F80831CC02091BA01273489F4209105
S11305D0BB01273469F42091BC01213449F481E042
S11305E08093E400EAEBF1E010821182128207C0EA
S11305F0EAEBF1E0218120832281218382839FBF62
S1130600FF91EF919F918F915F914F913F912F9126
S11306100F900FBE0F901F9018952FE789EA93E073
S1130620215080409040E1F700C0000080ED0E941E
S11306300B0189E10E94250187E00E9425010E94A7
S1130640050180ED0E940B018BE60E94250181E0EB
S11306500E9425010E94050180ED0E940B018AE1A0
S11306600E94250180E00E9425010E94050180ED81
S11306700E940B018BE10E94250188E10E94250163
S11306800E94050180ED0E940B0188E30E94250170
S113069081E00E9425010E940501089580ED0E94D9
S11306A00B018BE30E94250181ED0E94E80008956F
S11306B0CF93DF930E944E030E943701C82FD0E0EE
S11306C0DC2FCC270E943701BE01682B072E000CBB
S11306D0880B990B0E9422086093B2017093B301B6
S11306E08093B4019093B5010E943701C82FD0E0E4
S11306F0DC2FCC270E943701BE01682B072E000C8B
S1130700880B990B0E9422086093870170938801DB
S11307108093890190938A010E943701C82FD0E009
S1130720DC2FCC270E943701BE01682B072E000C5A
S1130730880B990B0E9422086093E5007093E600F1
S11307408093E7009093E8000E943701C82FD0E01F
S1130750DC2FCC270E943701BE01682B072E000C2A
S1130760880B990B0E942208609383017093840183
S113077080938501909386010E943701C82FD0E0B1
S1130780DC2FCC270E943701BE01682B072E000CFA
S1130790880B990B0E94220860937F01709380015B
S11307A080938101909382010E943701C82FD0E089
S11307B0DC2FCC270E943701BE01682B072E000CCA
S11307C0880B990B0E9422086093CC017093CD0191
S11307D08093CE019093CF010E943701C82FD0E0BF
S11307E0DC2FCC270E943E01BE01682B072E000C93
S11307F0880B990B0E9422086093AE017093AF019D
S11308008093B0019093B1010E940501DF91CF91D3
S113081008954F925F926F927F928F929F92AF92C0
S1130820BF92CF92DF92EF92FF920F931F934B01EF
S11308305C0129013A016701780120E030E040E0E1
S113084050ECC701B6010E94D2081816ACF520E09E
S113085030E040E050E4C701B6010E9473078823EA
S113086074F520E030E040E450ECC501B4010E948E
S1130870D20818163CF520E030E040E450E4C5010D
S1130880B4010E947307882304F520E030E040E0BF
S113089051E4C301B2010E94D2088823CCF020E0C5
S11308A030E040E151E4C301B2010E94730718161D
S11308B094F481E090E011C081E090E00EC081E00A
S11308C090E00BC081E090E008C081E090E005C0BA
S11308D081E090E002C080E090E01F910F91FF90D2
S11308E0EF90DF90CF90BF90AF909F908F907F90CC
S11308F06F905F904F90089589E683BF87B38860B7
S113090087BB08958AB188618AB980B5866880BD3D
S113091083E389B910BC08955D9BFECF8CB908951B
S1130920EF92FF920F931F93CF93DF93CDB7DEB770
S1130930A3970FB6F894DEBF0FBECDBF7C0184E051
S113094082BB81E494E59A8389831C821B828AE0BA
S1130950EBE8F0E0DE01159601900D928A95E1F73F
S113096089E0E0E6F0E0DE011F9601900D928A95A1
S1130970E1F7188E8BE0E5E9F0E0DE01599601908D
S11309800D928A95E1F70E94B8014AE650E060E0D2
S113099081E00E94A00143E750E063E082E00E940E
S11309A0A0012FEF80E792E0215080409040E1F7D2
S11309B000C0000000E010E00DC00E948C042FEF86
S11309C080E792E0215080409040E1F700C00000B1
S11309D00F5F1F4FE1E0F0E0EC0FFD1FE00FF11F90
S11309E080818111EACF8DE00E948C042FEF81EE8B
S11309F094E0215080409040E1F700C0000000E006
S1130A0010E00DC00E948C042FEF80E792E021508B
S1130A1080409040E1F700C000000F5F1F4FE5E009
S1130A20F0E0EC0FFD1FE00FF11F80818111EACF90
S1130A308DE00E948C042FEF81EE94E021508040E1
S1130A409040E1F700C0000000E010E00DC00E94FB
S1130A508C042FEF80E792E0215080409040E1F732
S1130A6000C000000F5F1F4FEFE0F0E0EC0FFD1F30
S1130A70E00FF11F80818111EACF82E28CB92FEF60
S1130A8080E792E0215080409040E1F700C00000F0
S1130A9000E010E00DC00E948C042FEF80E792E08C
S1130AA0215080409040E1F700C000000F5F1F4FCD
S1130AB0E9E1F0E0EC0FFD1FE00FF11F80818111EF
S1130AC0EACF82E28CB92FEF80E792E02150804098
S1130AD09040E1F700C000008DE08CB92FEF81EE6B
S1130AE094E0215080409040E1F700C0000000E015
S1130AF010E00DC00E948C042FEF80E792E021509B
S1130B0080409040E1F700C000000F5F1F4FF701E5
S1130B10E00FF11F80818111EDCF2FEF81EE94E082
S1130B20215080409040E1F700C000000E94B801CD
S1130B304EE750E060E081E00E94A0012FEF8DE3DA
S1130B4099E4215080409040E1F700C000000E94E9
S1130B50B80112BAA3960FB6F894DEBF0FBECDBF8C
S1130B60DF91CF911F910F91FF90EF90089582B381
S1130B70806882BB089582B38F7782BB089582B365
S1130B80806482BB089582B38F7B82BB089582B355
S1130B90806282BB0895CF93DF9300D000D01F9270
S1130BA0CDB7DEB71092B9011092B80181B3806459
S1130BB081BB81B3806881BB81B3806281BB0E94A9
S1130BC06F012FEF3DE349E4215030404040E1F70D
S1130BD000C0000060E875E280E090E00E948204BA
S1130BE060E875E280E090E00E94FC060E94BC018F
S1130BF078940E94E4000E947C040E940D030E94E9
S1130C00B8019C9B24C00E94B7050E94BF058FEFCA
S1130C1099E628E1815090402040E1F700C00000AF
S1130C200E94BB050E94C30580EA90E00E948A01ED
S1130C300E948A0284EE91E00E948A018BE891E08E
S1130C400E948A0181EB90E00E949004DACF80E058
S1130C500E94C401BC01990F880B990B0E942208C1
S1130C6020E030E040E85AE30E94D70820E030E07A
S1130C704FE753E40E94D7080E94EA07862F972F74
S1130C806C016CBF81E00E94C4018C3691050CF4A8
S1130C90B8CF0E94580320E030E040E858E3609168
S1130CA0B2017091B3018091B4019091B5010E9499
S1130CB0D70825ED37EE4CE151E40E94D7084B01EB
S1130CC05C0120E030E040E858E3609187017091D6
S1130CD088018091890190918A010E94D70825EDAD
S1130CE037EE4CE151E40E94D7082B013C0120E08F
S1130CF030E040E858E36091E5007091E6008091AF
S1130D00E7009091E8000E94D70825ED37EE4CE10A
S1130D1051E40E94D7089D9B15C00E94B80180EC45
S1130D2090E00E948A010E948A0284EE91E00E946F
S1130D308A018BE891E00E948A0180EC90E00E9495
S1130D4090045FCF7B018C01A3019201C501B40122
S1130D500E940904892B09F454CF0E94B7050E940C
S1130D60BF0581E090E011C09B9B05C00E94BB05BC
S1130D700E94C30517CF3FEF49E628E131504040B8
S1130D802040E1F700C0000001968630910564F32D
S1130D908BED90E00E948A010E948A0284EE91E029
S1130DA00E948A018BE891E00E948A0181ED90E023
S1130DB00E9490040E94C7051AC04AE0BE016F5FFA
S1130DC07F4FC6010E946809CE0101960E948A01E4
S1130DD0CCBE3FEF40E782E0315040408040E1F735
S1130DE000C000000E94B80191E0C91AD10824E1B2
S1130DF0C216D10414F7FFCF8AB188698AB980B5C5
S1130E00866880BD83E389B910BC08955058BB2718
S1130E10AA270E941E070C9498080E948A0838F09A
S1130E200E94910820F039F49F3F19F426F40C94A1
S1130E3087080EF4E095E7FB0C948108E92F0E94E3
S1130E40A90858F3BA17620773078407950720F0B7
S1130E5079F4A6F50C94CB080EF4E0950B2EBA2F7A
S1130E60A02D0B01B90190010C01CA01A0011124AC
S1130E70FF27591B99F0593F50F4503E68F11A1658
S1130E80F040A22F232F342F4427585FF3CF4695E9
S1130E9037952795A795F0405395C9F77EF41F160B
S1130EA0BA0B620B730B840BBAF09150A1F0FF0FD5
S1130EB0BB1F661F771F881FC2F70EC0BA0F621FC1
S1130EC0731F841F48F4879577956795B795F795B1
S1130ED09E3F08F0B0CF9395880F08F09927EE0F46
S1130EE09795879508950E945D0808F481E0089518
S1130EF00E948C070C9498080E94910858F00E9454
S1130F008A0840F029F45F3F29F00C9481085111BC
S1130F100C94CC080C9487080E94A90868F39923C0
S1130F20B1F3552391F3951B550BBB27AA276217E1
S1130F307307840738F09F5F5F4F220F331F441FEE
S1130F40AA1FA9F335D00E2E3AF0E0E832D0915022
S1130F505040E695001CCAF72BD0FE2F29D0660F0F
S1130F60771F881FBB1F261737074807AB07B0E852
S1130F7009F0BB0B802DBF01FF2793585F4F3AF058
S1130F809E3F510578F00C9481080C94CC085F3F87
S1130F90E4F3983ED4F3869577956795B795F795DE
S1130FA09F5FC9F7880F911D9695879597F90895C6
S1130FB0E1E0660F771F881FBB1F62177307840762
S1130FC0BA0720F0621B730B840BBA0BEE1F88F771
S1130FD0E09508950E94F1076894B1110C94CC082F
S1130FE008950E94B10888F09F5798F0B92F992767
S1130FF0B751B0F0E1F0660F771F881F991F1AF000
S1131000BA95C9F714C0B13091F00E94CB08B1E091
S113101008950C94CB08672F782F8827B85F39F090
S1131020B93FCCF3869577956795B395D9F73EF498
S113103090958095709561957F4F8F4F9F4F089540
S1131040E89409C097FB3EF490958095709561955E
S11310507F4F8F4F9F4F9923A9F0F92F96E9BB2714
S11310609395F695879577956795B795F111F8CF90
S1131070FAF4BB0F11F460FF1BC06F5F7F4F8F4FFB
S11310809F4F16C0882311F096E911C0772321F0F1
S11310909EE8872F762F05C0662371F096E8862F89
S11310A070E060E02AF09A95660F771F881FDAF7E0
S11310B0880F9695879597F90895990F0008550F0D
S11310C0AA0BE0E8FEEF16161706E807F907C0F0CA
S11310D012161306E407F50798F0621B730B840BD2
S11310E0950B39F40A2661F0232B242B252B21F4AC
S11310F008950A2609F4A140A6958FEF811D811D4C
S1131100089597F99F6780E870E060E008959FEF85
S113111080EC089500240A9416161706180609068A
S1131120089500240A941216130614060506089559
S1131130092E0394000C11F4882352F0BB0F40F4E1
S1131140BF2B11F460FF04C06F5F7F4F8F4F9F4F21
S1131150089557FD9058440F551F59F05F3F71F0A3
S11311604795880F97FB991F61F09F3F79F087950A
S11311700895121613061406551FF2CF4695F1DF93
S113118008C0161617061806991FF1CF8695710523
S1131190610508940895E894BB2766277727CB0157
S11311A097F908950E945D0808F48FEF08950E944E
S11311B0EA080C9498080E948A0838F00E94910862
S11311C020F0952311F00C9481080C9487081124C5
S11311D00C94CC080E94A90870F3959FC1F3950F55
S11311E050E0551F629FF001729FBB27F00DB11DA7
S11311F0639FAA27F00DB11DAA1F649F6627B00D37
S1131200A11D661F829F2227B00DA11D621F739F1F
S1131210B00DA11D621F839FA00D611D221F749F2D
S11312203327A00D611D231F849F600D211D822F74
S1131230762F6A2F11249F5750409AF0F1F088239B
S11312404AF0EE0FFF1FBB1F661F771F881F9150C8
S11312505040A9F79E3F510580F00C9481080C94EE
S1131260CC085F3FE4F3983ED4F386957795679571
S1131270B795F795E7959F5FC1F7FE2B880F911DF2
S11312809695879597F90895EF920F931F93CF93AF
S1131290DF93E80147FD02C034E001C034E1042ECD
S11312A0000C550B57FF03C0519541955109E32E8E
S11312B0022F242FAE010E948D09CE01DF91CF9120
S11312C01F910F91EF900895662777270C94E70AF2
S11312D0BB274A3031F4992322F4BDE290958195DD
S11312E09F4F0C947409BB27FB015527AA27880F2D
S11312F0991FAA1FA41710F0A41B83955051B9F786
S1131300A05DAA3308F0A95DA193009779F7B11104
S1131310B1931192CB010C942E0DA9E0B0E0E3E956
S1131320F9E00C94520D6A01122FB02E2BE3201712
S113133020F0FF24F394F00E02C02CE3F22E0F2DC4
S113134027E0AE014F5F5F4F0E94350CBC0149811D
S1131350842F8970813031F0E1FC06C0E0FE06C0C4
S113136090E205C09DE203C09BE201C090E05E2DC7
S1131370507143FF3CC0911102C083E001C084E07E
S1131380811718F4212F281B01C020E051110BC034
S1131390F601822F30E2882319F031938150FBCF7C
S11313A0C20ED11C20E0992329F0D6019C93F601AA
S11313B031966F01C6010396E2FE0AC03EE4D601EF
S11313C03C9341E411964C93119712963C9306C0BA
S11313D03EE6F601308341E641833283FC01322F3D
S11313E040E2332309F442C041933150FACF42FF23
S11313F044C0911102C083E001C084E0811718F455
S1131400212F281B01C020E051110BC0F601822FAF
S113141030E2882319F031938150FBCFC20ED11CE6
S113142020E0992329F0D6019C93F60131966F01AF
S1131430C6010396E2FE0BC039E4D6013C933EE4B8
S113144011963C93119736E412963C9307C039E603
S1131450F60130833EE6318336E63283FC01322FD7
S113146040E2332319F041933150FBCFFC01E20FEA
S1131470F11D10828EEF9FEFA6C021E030E09111A4
S113148002C020E030E0161617061CF4FB0131966A
S113149002C0E1E0F0E02E0F3F1FBB2021F0EB2D56
S11314A0F0E0319602C0E0E0F0E02E0F3F1FE12FA4
S11314B0F0E02E173F071CF4121B212F01C020E07F
S11314C08E2D887159F4F601822F30E2882319F0A9
S11314D031938150FBCFC20ED11C20E0992329F017
S11314E0D6019C93F60131966F0151110BC0F601A0
S11314F0822F90E3882319F091938150FBCFC20E81
S1131500D11C20E00F2D060F9A81342F307144FF37
S113151003C0913309F40150101624F4093018F073
S113152008E001C001E0AB0177FF02C040E050E0F9
S1131530FB01E41BF50BA1E0B0E0AC0FBD1FEA0F0B
S1131540FB1F8EE2A82E4B01801A91080B2D10E090
S11315501195019511094F3FBFEF5B0721F4D601A7
S1131560AC9211966D01641775072CF084169506DC
S113157014F4818101C080E3415051093196D601B0
S113158011967D014017510724F0D6018C93670111
S1131590E2CF6417750739F4963320F4953319F4C0
S11315A0311101C081E3F6018083F701822F90E2BB
S11315B0882319F091938150FBCFF701E20FF11DBD
S11315C0108280E090E02996ECE00C946E0DA0E08F
S11315D0B0E0EDEEFAE00C94520DEC016B016115F4
S11315E0710519F0FB01918380837E01FFEFEF1AEF
S11315F0FF0A0881802F90E00E940D0D892B11F0C5
S1131600E701F3CF0D3239F47E0182E0E80EF11CDC
S1131610098111E008C00B3229F47E0192E0E90E41
S1131620F11C098110E0E701219743E050E06CE5EB
S113163070E0CE010E94160D892BC1F4239645E07B
S113164050E067E570E0CE010E94160D892B09F485
S11316502596C114D10419F0F601D183C083111168
S1131660F6C060E070E080E89FE7FAC043E050E035
S113167064E570E0CE010E94160D892B59F4C11463
S1131680D10409F4E9C0F2E0EF0EF11CF601F18295
S1131690E082E2C020E030E0A901C0E0D0E0F70140
S11316A080EDA82EA00E89E08A1530F1912F92606A
S11316B0B92E812F887012FF04C0811124C0219695
S11316C022C081112197A5E0B0E00E94410DDC0108
S11316D0CB01880F991FAA1FBB1F9C01AD012A0DC6
S11316E0311D411D511D283989E93807480789E111
S11316F0580748F0166006C09EEFA9120AC013FDF1
S113170040C01860B12E8FEFE81AF80A00811B2D33
S1131710C6CF802F8F7D8534A1F580818D3211F461
S1131720106106C08B3221F0319661E070E004C094
S11317308181329662E070E080538A3018F0E61BB3
S1131740F70B1FC060E070E060389CE079075CF440
S1131750DB01AA0FBB1FAA0FBB1F6A0F7B1F660FFB
S1131760771F680F711D3196DF0111978C9180539B
S11317708A3050F314FF03C0719561957109C60F47
S1131780D71F11FF08C0C114D10429F0CF0101975C
S1131790F60191838083CA01B9010E942008212F98
S11317A02370233019F04B015C0106C04B015C012E
S11317B0B7FAB094B7F8B09420E030E0A901C501BD
S11317C0B4010E947307882309F43EC0D7FF06C002
S11317D0D195C195D10903E710E002C00BE810E0F0
S11317E06801F8E1CF1AD10890E2E92EF12CCE1568
S11317F0DF0574F0F8012591359145915491C501A7
S1131800B4010E94D7084B015C01CE19DF09EFCF68
S113181004501109F594E7940C151D0541F78A2D20
S1131820880F8B2D881F8F3F49F020E030E0A901FD
S1131830C501B4010E947307811106C082E290E0E1
S11318409093ED018093EC01C501B40109C060E0FF
S113185070E080E89FEF04C060E070E080EC9FE7F8
S1131860CDB7DEB7ECE00C946E0D283008F027E01D
S11318703327DA01990F311D87FD916000966105C8
S1131880710539F432602E5F3D9330E32A95E1F718
S113189008959F3F30F080387105610509F03C5F81
S11318A03C5F3D93913008F08068911DDF93CF93A6
S11318B01F930F93FF92EF92192F987F9695E92F1C
S11318C096959695E90FFF27E751FF4F9927332700
S11318D0EE24FF24A701E70105900894079428F457
S11318E0360FE71EF81E491F511D660F771F881F0C
S11318F0991F0694A1F70590079428F4E70EF81EA3
S1131900491F561FC11D770F881F991F661F069414
S1131910A1F70590079428F4F80E491F561FC71F16
S1131920D11D880F991F661F771F0694A1F7059094
S1131930079420F4490F561FC71FD81F990F661F1D
S1131940771F881F0694A9F784911095177041F0AA
S1131950D695C79557954795F794E7941A95C1F787
S1131960EFE8F0E0689415901591359165919591A3
S113197005907FE27395E118F10A430B560BC90BEE
S1131980D009C0F7E10CF11E431F561FC91FD01D1B
S11319907EF4703311F48A95E6CFE894015030F068
S11319A0080F0AF40027021708F4202F2395022FAA
S11319B07A3328F079E37D932A95E9F710C07D9373
S11319C02A9589F6069497956795379517951794F0
S11319D0E118F10A430B560BC90BD00998F0239573
S11319E07E9173957A3308F070E37C932013B8F7F3
S11319F07E9170617D9330F0839571E37D9370E304
S1131A002A95E1F71124EF90FF900F911F91CF9148
S1131A10DF91992787FD9095089591110C943E0DBF
S1131A20803219F089508550C8F70895FB01DC0114
S1131A304150504088F08D9181341CF08B350CF46A
S1131A40805E659161341CF06B350CF4605E861B1E
S1131A50611171F3990B0895881BFCCFDC01FC0123
S1131A60672F71917723E1F7329704C07C916D93CE
S1131A7070836291AE17BF07C8F30895992788272A
S1131A8008950E94830DA59F900DB49F900DA49F6F
S1131A90800D911D112408952F923F924F925F92D1
S1131AA06F927F928F929F92AF92BF92CF92DF926A
S1131AB0EF92FF920F931F93CF93DF93CDB7DEB7CF
S1131AC0CA1BDB0B0FB6F894DEBF0FBECDBF099463
S1131AD02A88398848885F846E847D848C849B84BA
S1131AE0AA84B984C884DF80EE80FD800C811B81C8
S1131AF0AA81B981CE0FD11D0FB6F894DEBF0FBEF7
S1131B00CDBFED010895A29FB001B39FC001A39F73
S1131B10700D811D1124911DB29F700D811D112422
S10B1B20911D0895F894FFCF14
S1131B2841542B434D47533D00004D657373616722
S1131B38653A00466F7277617264696E67004D6535
S1131B4873736167652073656E740041542B434D4C
S1131B5847463D3100303737313233343536370074
S1131B68466C616D65204465746563746564202101
S1131B7800466C616D652044657465637465640032
S1131B88416C636F686F6C20446574656374656445
S1131B980044726976657220697320536C656570B8
S1071BA8696E6700F7
S9030000FC
