S010000046756C6C436F64652E7372656306
S11300000C942A000C9447000C9447000C9447006D
S11300100C9447000C9447000C9447000C94470040
S11300200C9447000C9447000C9447000C94470030
S11300300C9447000C9447000C9447000C94470020
S11300400C9447000C9447000C9447000C94470010
S11300500C94470011241FBECFE5D8E0DEBFCDBF0E
S113006010E0A0E6B0E0E4EBFAE002C005900D92E7
S1130070A439B107D9F720E0A4E9B0E001C01D928A
S1130080A03BB207E1F70E941B030C9458050C94A3
S1130090000011B880E280B9089594EA96BF06B6CC
S11300A007FEFDCF91B1987F903171F483B984E854
S11300B086BF06B607FEFDCF81B1887F803431F05C
S11300C0803231F482E0089580E0089581E008955B
S11300D083E0089584E986BF06B604FCFDCF089545
S11300E0CF93C82F84EA86BF06B607FEFDCF81B141
S11300F0887F8830B9F7C3B984E886BF06B607FE9F
S1130100FDCF81B1887F883119F00E946A00EACF5F
S1130110CF91089583B984E886BF06B607FEFDCF64
S113012081B1887F883221F0803321F481E0089501
S113013080E0089582E0089584EC86BF06B607FE49
S1130140FDCF83B1089584E886BF06B607FEFDCFD0
S113015083B1089598B39F70282F207F922B98BB6A
S113016098B39E7F98BB98B3926098BB32E03A955F
S1130170F1F700C098B39D7F98BBEFE8F1E03197A9
S1130180F1F700C0000028B3F0E18F9FC0011124F3
S1130190922F9F70892B88BB88B3826088BB32E022
S11301A03A95F1F700C088B38D7F88BB8FE99FE053
S11301B00197F1F700C00000089598B39F70282FAD
S11301C0207F922B98BB98B3916098BB98B39260B0
S11301D098BB32E03A95F1F700C098B39D7F98BB85
S11301E0EFE8F1E03197F1F700C0000028B3F0E147
S11301F08F9FC0011124922F9F70892B88BB88B3D5
S1130200826088BB32E03A95F1F700C088B38D7FF5
S113021088BB8FE99FE00197F1F700C000000895C3
S11302208FEF87BB8FE39CE90197F1F700C00000D3
S113023083E30E94AA0082E30E94AA0088E20E944B
S1130240AA008CE00E94AA0086E00E94AA0081E035
S11302500E94AA008FE99FE00197F1F700C0000017
S113026080E80E94AA0008950F931F93CF93DF9311
S11302708C01C0E0D0E003C00E94DD002196F801AB
S1130280EC0FFD1F80818111F7CFDF91CF911F917A
S11302900F91089581E00E94AA008FE99FE00197E1
S11302A0F1F700C0000080E80E94AA0008958FEFD3
S11302B087BB1ABA87E886B980EC87B9089586B1F6
S11302C0806486B9349BFECF8AE18A95F1F700C039
S11302D024B185B190E0982F8827820F911D08954D
S11302E02FE789EA93E0215080409040E1F700C075
S11302F0000080ED0E94700089E10E948A0087E07E
S11303000E948A000E946A0080ED0E9470008BE6C1
S11303100E948A0081E00E948A000E946A0080EDA7
S11303200E9470008AE10E948A0080E00E948A0094
S11303300E946A0080ED0E9470008BE10E948A0096
S113034088E10E948A000E946A0080ED0E94700089
S113035088E30E948A0081E00E948A000E946A0069
S1130360089580ED0E9470008BE30E948A0081ED65
S11303700E944D000895CF93DF930E94B1010E9423
S11303809C00C82FD0E0DC2FCC270E949C00BE012B
S1130390682B072E000C880B990B0E94360460937F
S11303A0A8007093A9008093AA009093AB000E94C8
S11303B09C00C82FD0E0DC2FCC270E949C00BE01FB
S11303C0682B072E000C880B990B0E94360460934F
S11303D0A0007093A1008093A2009093A3000E94B8
S11303E09C00C82FD0E0DC2FCC270E949C00BE01CB
S11303F0682B072E000C880B990B0E94360460931F
S113040094007093950080939600909397000E94B7
S11304109C00C82FD0E0DC2FCC270E949C00BE019A
S1130420682B072E000C880B990B0E9436046093EE
S11304309C0070939D0080939E0090939F000E9467
S11304409C00C82FD0E0DC2FCC270E949C00BE016A
S1130450682B072E000C880B990B0E9436046093BE
S113046098007093990080939A0090939B000E9447
S11304709C00C82FD0E0DC2FCC270E949C00BE013A
S1130480682B072E000C880B990B0E94360460938E
S1130490AC007093AD008093AE009093AF000E94C7
S11304A09C00C82FD0E0DC2FCC270E94A300BE0103
S11304B0682B072E000C880B990B0E94360460935E
S11304C0A4007093A5008093A6009093A7000E94B7
S11304D06A00DF91CF9108954F925F926F927F925D
S11304E08F929F92AF92BF92CF92DF92EF92FF9240
S11304F00F931F934B015C0129013A0167017801B5
S113050020E030E040E050ECC701B6010E94BE0498
S11305101816ACF520E030E040E050E4C701B60125
S11305200E94F903882374F520E030E040E450ECA5
S1130530C501B4010E94BE0418163CF520E030E069
S113054040E450E4C501B4010E94F903882304F592
S113055020E030E040E051E4C301B2010E94BE0457
S11305608823CCF020E030E040E151E4C301B20143
S11305700E94F903181694F481E090E011C081E020
S113058090E00EC081E090E00BC081E090E008C0F4
S113059081E090E005C081E090E002C080E090E05E
S11305A01F910F91FF90EF90DF90CF90BF90AF908D
S11305B09F908F907F906F905F904F90089589E601
S11305C083BF87B3886087BB089582B3806882BB8A
S11305D0089582B38F7782BB089582B3806482BB0F
S11305E0089582B38F7B82BB089582B3806282BBFD
S11305F0089581E090E020E030E011C09E9B03C0AC
S11306002F5F3F4F02C0215031094FE758E361E0AB
S1130610415050406040E1F700C00000019689322B
S1130620910564F32832310519F481E090E00895CE
S113063080E090E0089584EE81BB0E9410010E9446
S113064057010E9449000E94DF020E9470010E942B
S11306504A0180E690E00E9434012FEF31EE44E03D
S1130660215030404040E1F700C000009C9B16C080
S11306700E94E5020E94ED028FEF99E628E1815085
S113068090402040E1F700C000000E94E9020E946F
S1130690F10288E690E00E943401E8CF80E00E94F5
S11306A05F01BC01990F880B990B0E94360420E06E
S11306B030E040E85AE30E94C30420E030E04FE712
S11306C053E40E94C3040E94FE036CBF81E00E94B5
S11306D05F018C36910554F29D9B14C00E944A011F
S11306E089E790E00E9434010E94E5023FEF49E669
S11306F088E1315040408040E1F700C000000E9492
S1130700E902B4CF0E94BB0120E030E040E858E3A6
S11307106091A8007091A9008091AA009091AB000B
S11307200E94C30425ED37EE4CE151E40E94C3045A
S11307304B015C0120E030E040E858E36091A00008
S11307407091A1008091A2009091A3000E94C30423
S113075025ED37EE4CE151E40E94C3042B013C012A
S113076020E030E040E858E36091940070919500F7
S113077080919600909197000E94C30425ED37EE76
S11307804CE151E40E94C3046B017C010E94F90214
S1130790892B09F46BCF87017601A3019201C5016E
S11307A0B4010E946C02892B09F460CF0E94E50217
S11307B00E94ED0281E090E011C09B9B05C00E9465
S11307C0E9020E94F10237CF2FE73AE146E02150D7
S11307D030404040E1F700C00000019685319105AA
S11307E064F38AE890E00E9434010E94F5021CBE82
S11307F0FFCF0E94710408F481E008950E9405046B
S11308006894B1110C94B80408950E949D0488F072
S11308109F5798F0B92F9927B751B0F0E1F0660FC0
S1130820771F881F991F1AF0BA95C9F714C0B13001
S113083091F00E94B704B1E008950C94B704672FB7
S1130840782F8827B85F39F0B93FCCF38695779530
S11308506795B395D9F73EF4909580957095619519
S11308607F4F8F4F9F4F0895E89409C097FB3EF444
S113087090958095709561957F4F8F4F9F4F9923E9
S1130880A9F0F92F96E9BB279395F6958795779567
S11308906795B795F111F8CFFAF4BB0F11F460FF27
S11308A01BC06F5F7F4F8F4F9F4F16C0882311F07F
S11308B096E911C0772321F09EE8872F762F05C093
S11308C0662371F096E8862F70E060E02AF09A952E
S11308D0660F771F881FDAF7880F9695879597F923
S11308E00895990F0008550FAA0BE0E8FEEF1616BD
S11308F01706E807F907C0F012161306E407F50710
S113090098F0621B730B840B950B39F40A2661F083
S1130910232B242B252B21F408950A2609F4A14026
S1130920A6958FEF811D811D089557FD9058440FA2
S1130930551F59F05F3F71F04795880F97FB991F3A
S113094061F09F3F79F087950895121613061406F7
S1130950551FF2CF4695F1DF08C016161706180684
S1130960991FF1CF86957105610508940895E8945F
S1130970BB2766277727CB0197F908950E94710456
S113098008F48FEF08950E94D6040C9447050E9442
S1130990390538F00E94400520F0952311F00C949D
S11309A030050C94360511240C94B8040E94950467
S11309B070F3959FC1F3950F50E0551F629FF001AE
S11309C0729FBB27F00DB11D639FAA27F00DB11DC7
S11309D0AA1F649F6627B00DA11D661F829F222750
S11309E0B00DA11D621F739FB00DA11D621F839FD7
S11309F0A00D611D221F749F3327A00D611D231FAD
S1130A00849F600D211D822F762F6A2F11249F57FA
S1130A1050409AF0F1F088234AF0EE0FFF1FBB1FFD
S1130A20661F771F881F91505040A9F79E3F5105BC
S1130A3080F00C9430050C94B8045F3FE4F3983EC6
S1130A40D4F3869577956795B795F795E7959F5F66
S1130A50C1F7FE2B880F911D9695879597F90895F8
S1130A6097F99F6780E870E060E008959FEF80EC5D
S1130A70089500240A941616170618060906089500
S1130A8000240A9412161306140605060895092E66
S1130A900394000C11F4882352F0BB0F40F4BF2BD5
S1130AA011F460FF04C06F5F7F4F8F4F9F4F089515
S1070AB0F894FFCFE4
S1130AB457656C636F6D6500466C616D65204465B4
S1130AC4746563746564202100416C636F686F6CA2
S1130AD420446574656374656400536C656570696A
S1070AE46E67000035
S9030000FC
