:100000000C942A000C9434000C9434000C943400AA
:100010000C9434000C9434000C9434000C94340090
:100020000C9434000C9434000C9434000C94340080
:100030000C9434000C9434000C9434000C94340070
:100040000C9434000C9434000C9434000C94340060
:100050000C94340011241FBECFE5D8E0DEBFCDBF25
:100060000E9436000C9443000C94000085B381601C
:1000700085BB9F9B04C085B3816085BBFACF85B3E8
:0A0080008E7F85BBF6CFF894FFCF0A
:00000001FF
